01E3:00000100  mov  dx,0127                                            BA 27 01              EAX:00000000 EBX:00000000 ECX:000000FF EDX:000001E3 ESI:00000100 EDI:0000FFFE EBP:0000091C ESP:0000FFFE DS:01E3 ES:01E3 FS:0000 GS:0000 SS:01E3 CF:0 ZF:0 SF:0 OF:0 AF:0 PF:0 IF:1 TF:0 VM:0 FLG:00007202 CR0:00000000
01E3:00000103  mov  ax,3D00                                            B8 00 3D              EAX:00000000 EBX:00000000 ECX:000000FF EDX:00000127 ESI:00000100 EDI:0000FFFE EBP:0000091C ESP:0000FFFE DS:01E3 ES:01E3 FS:0000 GS:0000 SS:01E3 CF:0 ZF:0 SF:0 OF:0 AF:0 PF:0 IF:1 TF:0 VM:0 FLG:00007202 CR0:00000000
01E3:00000106  int  21                                                 CD 21                 EAX:00003D00 EBX:00000000 ECX:000000FF EDX:00000127 ESI:00000100 EDI:0000FFFE EBP:0000091C ESP:0000FFFE DS:01E3 ES:01E3 FS:0000 GS:0000 SS:01E3 CF:0 ZF:0 SF:0 OF:0 AF:0 PF:0 IF:1 TF:0 VM:0 FLG:00007202 CR0:00000000
F000:000014C0  sti                                                     FB                    EAX:00003D00 EBX:00000000 ECX:000000FF EDX:00000127 ESI:00000100 EDI:0000FFFE EBP:0000091C ESP:0000FFF8 DS:01E3 ES:01E3 FS:0000 GS:0000 SS:01E3 CF:0 ZF:0 SF:0 OF:0 AF:0 PF:0 IF:0 TF:0 VM:0 FLG:00007002 CR0:00000000
F000:000014C1  callback 0026  (DOS Int 21)                             FE 38 26 00           EAX:00003D00 EBX:00000000 ECX:000000FF EDX:00000127 ESI:00000100 EDI:0000FFFE EBP:0000091C ESP:0000FFF8 DS:01E3 ES:01E3 FS:0000 GS:0000 SS:01E3 CF:0 ZF:0 SF:0 OF:0 AF:0 PF:0 IF:1 TF:0 VM:0 FLG:00007202 CR0:00000000
F000:000014C5  iret                                                    CF                    EAX:00000005 EBX:00000000 ECX:000000FF EDX:00000127 ESI:00000100 EDI:0000FFFE EBP:0000091C ESP:0000FFF8 DS:01E3 ES:01E3 FS:0000 GS:0000 SS:01E3 CF:0 ZF:0 SF:0 OF:0 AF:0 PF:0 IF:1 TF:0 VM:0 FLG:00007202 CR0:00000000
01E3:00000108  push ax                                                 50                    EAX:00000005 EBX:00000000 ECX:000000FF EDX:00000127 ESI:00000100 EDI:0000FFFE EBP:0000091C ESP:0000FFFE DS:01E3 ES:01E3 FS:0000 GS:0000 SS:01E3 CF:0 ZF:0 SF:0 OF:0 AF:0 PF:0 IF:1 TF:0 VM:0 FLG:00007202 CR0:00000000
01E3:00000109  mov  dx,0127                                            BA 27 01              EAX:00000005 EBX:00000000 ECX:000000FF EDX:00000127 ESI:00000100 EDI:0000FFFE EBP:0000091C ESP:0000FFFC DS:01E3 ES:01E3 FS:0000 GS:0000 SS:01E3 CF:0 ZF:0 SF:0 OF:0 AF:0 PF:0 IF:1 TF:0 VM:0 FLG:00007202 CR0:00000000
01E3:0000010C  mov  ax,3D00                                            B8 00 3D              EAX:00000005 EBX:00000000 ECX:000000FF EDX:00000127 ESI:00000100 EDI:0000FFFE EBP:0000091C ESP:0000FFFC DS:01E3 ES:01E3 FS:0000 GS:0000 SS:01E3 CF:0 ZF:0 SF:0 OF:0 AF:0 PF:0 IF:1 TF:0 VM:0 FLG:00007202 CR0:00000000
01E3:0000010F  int  21                                                 CD 21                 EAX:00003D00 EBX:00000000 ECX:000000FF EDX:00000127 ESI:00000100 EDI:0000FFFE EBP:0000091C ESP:0000FFFC DS:01E3 ES:01E3 FS:0000 GS:0000 SS:01E3 CF:0 ZF:0 SF:0 OF:0 AF:0 PF:0 IF:1 TF:0 VM:0 FLG:00007202 CR0:00000000
F000:000014C0  sti                                                     FB                    EAX:00003D00 EBX:00000000 ECX:000000FF EDX:00000127 ESI:00000100 EDI:0000FFFE EBP:0000091C ESP:0000FFF6 DS:01E3 ES:01E3 FS:0000 GS:0000 SS:01E3 CF:0 ZF:0 SF:0 OF:0 AF:0 PF:0 IF:0 TF:0 VM:0 FLG:00007002 CR0:00000000
F000:000014C1  callback 0026  (DOS Int 21)                             FE 38 26 00           EAX:00003D00 EBX:00000000 ECX:000000FF EDX:00000127 ESI:00000100 EDI:0000FFFE EBP:0000091C ESP:0000FFF6 DS:01E3 ES:01E3 FS:0000 GS:0000 SS:01E3 CF:0 ZF:0 SF:0 OF:0 AF:0 PF:0 IF:1 TF:0 VM:0 FLG:00007202 CR0:00000000
F000:000014C5  iret                                                    CF                    EAX:00000006 EBX:00000000 ECX:000000FF EDX:00000127 ESI:00000100 EDI:0000FFFE EBP:0000091C ESP:0000FFF6 DS:01E3 ES:01E3 FS:0000 GS:0000 SS:01E3 CF:0 ZF:0 SF:0 OF:0 AF:0 PF:0 IF:1 TF:0 VM:0 FLG:00007202 CR0:00000000
01E3:00000111  push ax                                                 50                    EAX:00000006 EBX:00000000 ECX:000000FF EDX:00000127 ESI:00000100 EDI:0000FFFE EBP:0000091C ESP:0000FFFC DS:01E3 ES:01E3 FS:0000 GS:0000 SS:01E3 CF:0 ZF:0 SF:0 OF:0 AF:0 PF:0 IF:1 TF:0 VM:0 FLG:00007202 CR0:00000000
01E3:00000112  push ax                                                 50                    EAX:00000006 EBX:00000000 ECX:000000FF EDX:00000127 ESI:00000100 EDI:0000FFFE EBP:0000091C ESP:0000FFFA DS:01E3 ES:01E3 FS:0000 GS:0000 SS:01E3 CF:0 ZF:0 SF:0 OF:0 AF:0 PF:0 IF:1 TF:0 VM:0 FLG:00007202 CR0:00000000
01E3:00000113  pop  bx                                                 5B                    EAX:00000006 EBX:00000000 ECX:000000FF EDX:00000127 ESI:00000100 EDI:0000FFFE EBP:0000091C ESP:0000FFF8 DS:01E3 ES:01E3 FS:0000 GS:0000 SS:01E3 CF:0 ZF:0 SF:0 OF:0 AF:0 PF:0 IF:1 TF:0 VM:0 FLG:00007202 CR0:00000000
01E3:00000114  mov  ah,3E                                              B4 3E                 EAX:00000006 EBX:00000006 ECX:000000FF EDX:00000127 ESI:00000100 EDI:0000FFFE EBP:0000091C ESP:0000FFFA DS:01E3 ES:01E3 FS:0000 GS:0000 SS:01E3 CF:0 ZF:0 SF:0 OF:0 AF:0 PF:0 IF:1 TF:0 VM:0 FLG:00007202 CR0:00000000
01E3:00000116  int  21                                                 CD 21                 EAX:00003E06 EBX:00000006 ECX:000000FF EDX:00000127 ESI:00000100 EDI:0000FFFE EBP:0000091C ESP:0000FFFA DS:01E3 ES:01E3 FS:0000 GS:0000 SS:01E3 CF:0 ZF:0 SF:0 OF:0 AF:0 PF:0 IF:1 TF:0 VM:0 FLG:00007202 CR0:00000000
F000:000014C0  sti                                                     FB                    EAX:00003E06 EBX:00000006 ECX:000000FF EDX:00000127 ESI:00000100 EDI:0000FFFE EBP:0000091C ESP:0000FFF4 DS:01E3 ES:01E3 FS:0000 GS:0000 SS:01E3 CF:0 ZF:0 SF:0 OF:0 AF:0 PF:0 IF:0 TF:0 VM:0 FLG:00007002 CR0:00000000
F000:000014C1  callback 0026  (DOS Int 21)                             FE 38 26 00           EAX:00003E06 EBX:00000006 ECX:000000FF EDX:00000127 ESI:00000100 EDI:0000FFFE EBP:0000091C ESP:0000FFF4 DS:01E3 ES:01E3 FS:0000 GS:0000 SS:01E3 CF:0 ZF:0 SF:0 OF:0 AF:0 PF:0 IF:1 TF:0 VM:0 FLG:00007202 CR0:00000000
F000:000014C5  iret                                                    CF                    EAX:00003E06 EBX:00000006 ECX:000000FF EDX:00000127 ESI:00000100 EDI:0000FFFE EBP:0000091C ESP:0000FFF4 DS:01E3 ES:01E3 FS:0000 GS:0000 SS:01E3 CF:0 ZF:0 SF:0 OF:0 AF:0 PF:0 IF:1 TF:0 VM:0 FLG:00007202 CR0:00000000
01E3:00000118  pop  bx                                                 5B                    EAX:00003E06 EBX:00000006 ECX:000000FF EDX:00000127 ESI:00000100 EDI:0000FFFE EBP:0000091C ESP:0000FFFA DS:01E3 ES:01E3 FS:0000 GS:0000 SS:01E3 CF:0 ZF:0 SF:0 OF:0 AF:0 PF:0 IF:1 TF:0 VM:0 FLG:00007202 CR0:00000000
01E3:00000119  mov  ah,3E                                              B4 3E                 EAX:00003E06 EBX:00000006 ECX:000000FF EDX:00000127 ESI:00000100 EDI:0000FFFE EBP:0000091C ESP:0000FFFC DS:01E3 ES:01E3 FS:0000 GS:0000 SS:01E3 CF:0 ZF:0 SF:0 OF:0 AF:0 PF:0 IF:1 TF:0 VM:0 FLG:00007202 CR0:00000000
01E3:0000011B  int  21                                                 CD 21                 EAX:00003E06 EBX:00000006 ECX:000000FF EDX:00000127 ESI:00000100 EDI:0000FFFE EBP:0000091C ESP:0000FFFC DS:01E3 ES:01E3 FS:0000 GS:0000 SS:01E3 CF:0 ZF:0 SF:0 OF:0 AF:0 PF:0 IF:1 TF:0 VM:0 FLG:00007202 CR0:00000000
F000:000014C0  sti                                                     FB                    EAX:00003E06 EBX:00000006 ECX:000000FF EDX:00000127 ESI:00000100 EDI:0000FFFE EBP:0000091C ESP:0000FFF6 DS:01E3 ES:01E3 FS:0000 GS:0000 SS:01E3 CF:0 ZF:0 SF:0 OF:0 AF:0 PF:0 IF:0 TF:0 VM:0 FLG:00007002 CR0:00000000
F000:000014C1  callback 0026  (DOS Int 21)                             FE 38 26 00           EAX:00003E06 EBX:00000006 ECX:000000FF EDX:00000127 ESI:00000100 EDI:0000FFFE EBP:0000091C ESP:0000FFF6 DS:01E3 ES:01E3 FS:0000 GS:0000 SS:01E3 CF:0 ZF:0 SF:0 OF:0 AF:0 PF:0 IF:1 TF:0 VM:0 FLG:00007202 CR0:00000000
F000:000014C5  iret                                                    CF                    EAX:00000006 EBX:00000006 ECX:000000FF EDX:00000127 ESI:00000100 EDI:0000FFFE EBP:0000091C ESP:0000FFF6 DS:01E3 ES:01E3 FS:0000 GS:0000 SS:01E3 CF:0 ZF:0 SF:0 OF:0 AF:0 PF:0 IF:1 TF:0 VM:0 FLG:00007202 CR0:00000000
01E3:0000011D  pop  bx                                                 5B                    EAX:00000006 EBX:00000006 ECX:000000FF EDX:00000127 ESI:00000100 EDI:0000FFFE EBP:0000091C ESP:0000FFFC DS:01E3 ES:01E3 FS:0000 GS:0000 SS:01E3 CF:1 ZF:0 SF:0 OF:0 AF:0 PF:0 IF:1 TF:0 VM:0 FLG:00007203 CR0:00000000
01E3:0000011E  mov  ah,3E                                              B4 3E                 EAX:00000006 EBX:00000005 ECX:000000FF EDX:00000127 ESI:00000100 EDI:0000FFFE EBP:0000091C ESP:0000FFFE DS:01E3 ES:01E3 FS:0000 GS:0000 SS:01E3 CF:1 ZF:0 SF:0 OF:0 AF:0 PF:0 IF:1 TF:0 VM:0 FLG:00007203 CR0:00000000
01E3:00000120  int  21                                                 CD 21                 EAX:00003E06 EBX:00000005 ECX:000000FF EDX:00000127 ESI:00000100 EDI:0000FFFE EBP:0000091C ESP:0000FFFE DS:01E3 ES:01E3 FS:0000 GS:0000 SS:01E3 CF:1 ZF:0 SF:0 OF:0 AF:0 PF:0 IF:1 TF:0 VM:0 FLG:00007203 CR0:00000000
F000:000014C0  sti                                                     FB                    EAX:00003E06 EBX:00000005 ECX:000000FF EDX:00000127 ESI:00000100 EDI:0000FFFE EBP:0000091C ESP:0000FFF8 DS:01E3 ES:01E3 FS:0000 GS:0000 SS:01E3 CF:1 ZF:0 SF:0 OF:0 AF:0 PF:0 IF:0 TF:0 VM:0 FLG:00007003 CR0:00000000
F000:000014C1  callback 0026  (DOS Int 21)                             FE 38 26 00           EAX:00003E06 EBX:00000005 ECX:000000FF EDX:00000127 ESI:00000100 EDI:0000FFFE EBP:0000091C ESP:0000FFF8 DS:01E3 ES:01E3 FS:0000 GS:0000 SS:01E3 CF:1 ZF:0 SF:0 OF:0 AF:0 PF:0 IF:1 TF:0 VM:0 FLG:00007203 CR0:00000000
F000:000014C5  iret                                                    CF                    EAX:00003E06 EBX:00000005 ECX:000000FF EDX:00000127 ESI:00000100 EDI:0000FFFE EBP:0000091C ESP:0000FFF8 DS:01E3 ES:01E3 FS:0000 GS:0000 SS:01E3 CF:1 ZF:0 SF:0 OF:0 AF:0 PF:0 IF:1 TF:0 VM:0 FLG:00007203 CR0:00000000
01E3:00000122  mov  ax,4C00                                            B8 00 4C              EAX:00003E06 EBX:00000005 ECX:000000FF EDX:00000127 ESI:00000100 EDI:0000FFFE EBP:0000091C ESP:0000FFFE DS:01E3 ES:01E3 FS:0000 GS:0000 SS:01E3 CF:0 ZF:0 SF:0 OF:0 AF:0 PF:0 IF:1 TF:0 VM:0 FLG:00007202 CR0:00000000
01E3:00000125  int  21                                                 CD 21                 EAX:00004C00 EBX:00000005 ECX:000000FF EDX:00000127 ESI:00000100 EDI:0000FFFE EBP:0000091C ESP:0000FFFE DS:01E3 ES:01E3 FS:0000 GS:0000 SS:01E3 CF:0 ZF:0 SF:0 OF:0 AF:0 PF:0 IF:1 TF:0 VM:0 FLG:00007202 CR0:00000000
F000:000014C0  sti                                                     FB                    EAX:00004C00 EBX:00000005 ECX:000000FF EDX:00000127 ESI:00000100 EDI:0000FFFE EBP:0000091C ESP:0000FFF8 DS:01E3 ES:01E3 FS:0000 GS:0000 SS:01E3 CF:0 ZF:0 SF:0 OF:0 AF:0 PF:0 IF:0 TF:0 VM:0 FLG:00007002 CR0:00000000
F000:000014C1  callback 0026  (DOS Int 21)                             FE 38 26 00           EAX:00004C00 EBX:00000005 ECX:000000FF EDX:00000127 ESI:00000100 EDI:0000FFFE EBP:0000091C ESP:0000FFF8 DS:01E3 ES:01E3 FS:0000 GS:0000 SS:01E3 CF:0 ZF:0 SF:0 OF:0 AF:0 PF:0 IF:1 TF:0 VM:0 FLG:00007202 CR0:00000000
F000:000014C5  iret                                                    CF                    EAX:00004B00 EBX:00000200 ECX:000000FF EDX:00000220 ESI:00000100 EDI:0000FFFE EBP:0000091C ESP:000001FA DS:0195 ES:0195 FS:0000 GS:0000 SS:0195 CF:0 ZF:0 SF:0 OF:0 AF:0 PF:0 IF:1 TF:0 VM:0 FLG:00007202 CR0:00000000
F000:000020C8  callback 0001  (stop)                                   FE 38 01 00           EAX:00004B00 EBX:00000200 ECX:000000FF EDX:00000220 ESI:00000100 EDI:0000FFFE EBP:0000091C ESP:00000200 DS:0195 ES:0195 FS:0000 GS:0000 SS:0195 CF:0 ZF:0 SF:0 OF:0 AF:0 PF:0 IF:1 TF:0 VM:0 FLG:00007202 CR0:00000000
